{
  "_format": "hh-sol-artifact-1",
  "contractName": "WavePortal",
  "sourceName": "contracts/WavePortal.sol",
  "abi": [
    {
      "inputs": [],
      "stateMutability": "payable",
      "type": "constructor"
    },
    {
      "anonymous": false,
      "inputs": [
        {
          "indexed": true,
          "internalType": "address",
          "name": "from",
          "type": "address"
        },
        {
          "indexed": false,
          "internalType": "uint256",
          "name": "timestamp",
          "type": "uint256"
        },
        {
          "indexed": false,
          "internalType": "string",
          "name": "message",
          "type": "string"
        }
      ],
      "name": "NewWave",
      "type": "event"
    },
    {
      "inputs": [
        {
          "internalType": "address",
          "name": "_whoWave",
          "type": "address"
        }
      ],
      "name": "countWaves",
      "outputs": [],
      "stateMutability": "nonpayable",
      "type": "function"
    },
    {
      "inputs": [],
      "name": "getAllWaves",
      "outputs": [
        {
          "components": [
            {
              "internalType": "address",
              "name": "waver",
              "type": "address"
            },
            {
              "internalType": "string",
              "name": "message",
              "type": "string"
            },
            {
              "internalType": "uint256",
              "name": "timestamp",
              "type": "uint256"
            }
          ],
          "internalType": "struct WavePortal.Wave[]",
          "name": "",
          "type": "tuple[]"
        }
      ],
      "stateMutability": "view",
      "type": "function"
    },
    {
      "inputs": [],
      "name": "getTotalWaves",
      "outputs": [
        {
          "internalType": "uint256",
          "name": "",
          "type": "uint256"
        }
      ],
      "stateMutability": "view",
      "type": "function"
    },
    {
      "inputs": [
        {
          "internalType": "address",
          "name": "",
          "type": "address"
        }
      ],
      "name": "lastWavedAt",
      "outputs": [
        {
          "internalType": "uint256",
          "name": "",
          "type": "uint256"
        }
      ],
      "stateMutability": "view",
      "type": "function"
    },
    {
      "inputs": [
        {
          "internalType": "address",
          "name": "_waveCount",
          "type": "address"
        }
      ],
      "name": "viewCount",
      "outputs": [
        {
          "internalType": "uint256",
          "name": "",
          "type": "uint256"
        }
      ],
      "stateMutability": "view",
      "type": "function"
    },
    {
      "inputs": [
        {
          "internalType": "string",
          "name": "_message",
          "type": "string"
        }
      ],
      "name": "wave",
      "outputs": [],
      "stateMutability": "nonpayable",
      "type": "function"
    }
  ],
  "bytecode": "0x60806040526200003360405180606001604052806025815260200162001bf1602591396200005b60201b6200093f1760201c565b6064444262000043919062000160565b6200004f9190620001ca565b600281905550620002c0565b620000fb816040516024016200007291906200029c565b6040516020818303038152906040527f41304fac000000000000000000000000000000000000000000000000000000007bffffffffffffffffffffffffffffffffffffffffffffffffffffffff19166020820180517bffffffffffffffffffffffffffffffffffffffffffffffffffffffff8381831617835250505050620000fe60201b60201c565b50565b60008151905060006a636f6e736f6c652e6c6f679050602083016000808483855afa5050505050565b6000819050919050565b7f4e487b7100000000000000000000000000000000000000000000000000000000600052601160045260246000fd5b60006200016d8262000127565b91506200017a8362000127565b925082820190508082111562000195576200019462000131565b5b92915050565b7f4e487b7100000000000000000000000000000000000000000000000000000000600052601260045260246000fd5b6000620001d78262000127565b9150620001e48362000127565b925082620001f757620001f66200019b565b5b828206905092915050565b600081519050919050565b600082825260208201905092915050565b60005b838110156200023e57808201518184015260208101905062000221565b60008484015250505050565b6000601f19601f8301169050919050565b6000620002688262000202565b6200027481856200020d565b9350620002868185602086016200021e565b62000291816200024a565b840191505092915050565b60006020820190508181036000830152620002b881846200025b565b905092915050565b61192180620002d06000396000f3fe608060405234801561001057600080fd5b50600436106100625760003560e01c8063449d46c0146100675780639a2cdc0814610083578063a42a4663146100a1578063b5822150146100d1578063bd43a908146100ed578063c0a8cae21461010b575b600080fd5b610081600480360381019061007c9190610dd4565b61013b565b005b61008b61062b565b6040516100989190610e36565b60405180910390f35b6100bb60048036038101906100b69190610eaf565b610676565b6040516100c89190610e36565b60405180910390f35b6100eb60048036038101906100e69190610eaf565b61068e565b005b6100f56106f0565b604051610102919061108b565b60405180910390f35b61012560048036038101906101209190610eaf565b610841565b6040516101329190610e36565b60405180910390f35b42601e600460003373ffffffffffffffffffffffffffffffffffffffff1673ffffffffffffffffffffffffffffffffffffffff1681526020019081526020016000205461018891906110dc565b106101c8576040517f08c379a00000000000000000000000000000000000000000000000000000000081526004016101bf9061116d565b60405180910390fd5b42600460003373ffffffffffffffffffffffffffffffffffffffff1673ffffffffffffffffffffffffffffffffffffffff16815260200190815260200160002081905550600160008082825461021e91906110dc565b925050819055506102656040518060400160405280601681526020017f257320776176656420772f206d6573736167652025730000000000000000000081525033836109d8565b600360405180606001604052803373ffffffffffffffffffffffffffffffffffffffff16815260200183815260200142815250908060018154018082558091505060019003906000526020600020906003020160009091909190915060008201518160000160006101000a81548173ffffffffffffffffffffffffffffffffffffffff021916908373ffffffffffffffffffffffffffffffffffffffff160217905550602082015181600101908161031d9190611399565b506040820151816002015550506064600254424461033b91906110dc565b61034591906110dc565b61034f919061149a565b6002819055506103966040518060400160405280601681526020017f72616e646f6d20232067656e6572617465643a20256400000000000000000000815250600254610a77565b6032600254116104dc576103df6040518060400160405280600781526020017f257320776f6e210000000000000000000000000000000000000000000000000081525033610b13565b6000655af3107a400090504781111561042d576040517f08c379a00000000000000000000000000000000000000000000000000000000081526004016104249061153d565b60405180910390fd5b60003373ffffffffffffffffffffffffffffffffffffffff16826040516104539061158e565b60006040518083038185875af1925050503d8060008114610490576040519150601f19603f3d011682016040523d82523d6000602084013e610495565b606091505b50509050806104d9576040517f08c379a00000000000000000000000000000000000000000000000000000000081526004016104d090611615565b60405180910390fd5b50505b3373ffffffffffffffffffffffffffffffffffffffff167f5f7e16dc676677766a70e9c5628aa6c54ddb8b6e5188e2ae1e1f17f1ffbea716428360405161052492919061166e565b60405180910390a26000655af3107a400090504781111561057a576040517f08c379a000000000000000000000000000000000000000000000000000000000815260040161057190611710565b60405180910390fd5b60003373ffffffffffffffffffffffffffffffffffffffff16826040516105a09061158e565b60006040518083038185875af1925050503d80600081146105dd576040519150601f19603f3d011682016040523d82523d6000602084013e6105e2565b606091505b5050905080610626576040517f08c379a000000000000000000000000000000000000000000000000000000000815260040161061d906117a2565b60405180910390fd5b505050565b600061066e6040518060400160405280601781526020017f5765206861766520256420746f74616c20776176657321000000000000000000815250600054610a77565b600054905090565b60046020528060005260406000206000915090505481565b60018060008282546106a091906110dc565b92505081905550600154600560008373ffffffffffffffffffffffffffffffffffffffff1673ffffffffffffffffffffffffffffffffffffffff1681526020019081526020016000208190555050565b60606003805480602002602001604051908101604052809291908181526020016000905b8282101561083857838290600052602060002090600302016040518060600160405290816000820160009054906101000a900473ffffffffffffffffffffffffffffffffffffffff1673ffffffffffffffffffffffffffffffffffffffff1673ffffffffffffffffffffffffffffffffffffffff16815260200160018201805461079d906111bc565b80601f01602080910402602001604051908101604052809291908181526020018280546107c9906111bc565b80156108165780601f106107eb57610100808354040283529160200191610816565b820191906000526020600020905b8154815290600101906020018083116107f957829003601f168201915b5050505050815260200160028201548152505081526020019060010190610714565b50505050905090565b60006108f8826040518060400160405280600981526020017f6861732077617665640000000000000000000000000000000000000000000000815250600560008673ffffffffffffffffffffffffffffffffffffffff1673ffffffffffffffffffffffffffffffffffffffff168152602001908152602001600020546040518060400160405280600581526020017f74696d6573000000000000000000000000000000000000000000000000000000815250610baf565b600560008373ffffffffffffffffffffffffffffffffffffffff1673ffffffffffffffffffffffffffffffffffffffff168152602001908152602001600020549050919050565b6109d58160405160240161095391906117c2565b6040516020818303038152906040527f41304fac000000000000000000000000000000000000000000000000000000007bffffffffffffffffffffffffffffffffffffffffffffffffffffffff19166020820180517bffffffffffffffffffffffffffffffffffffffffffffffffffffffff8381831617835250505050610c51565b50565b610a728383836040516024016109f0939291906117f3565b6040516020818303038152906040527fe0e9ad4f000000000000000000000000000000000000000000000000000000007bffffffffffffffffffffffffffffffffffffffffffffffffffffffff19166020820180517bffffffffffffffffffffffffffffffffffffffffffffffffffffffff8381831617835250505050610c51565b505050565b610b0f8282604051602401610a8d929190611838565b6040516020818303038152906040527fb60e72cc000000000000000000000000000000000000000000000000000000007bffffffffffffffffffffffffffffffffffffffffffffffffffffffff19166020820180517bffffffffffffffffffffffffffffffffffffffffffffffffffffffff8381831617835250505050610c51565b5050565b610bab8282604051602401610b29929190611868565b6040516020818303038152906040527f319af333000000000000000000000000000000000000000000000000000000007bffffffffffffffffffffffffffffffffffffffffffffffffffffffff19166020820180517bffffffffffffffffffffffffffffffffffffffffffffffffffffffff8381831617835250505050610c51565b5050565b610c4b84848484604051602401610bc99493929190611898565b6040516020818303038152906040527f448830a8000000000000000000000000000000000000000000000000000000007bffffffffffffffffffffffffffffffffffffffffffffffffffffffff19166020820180517bffffffffffffffffffffffffffffffffffffffffffffffffffffffff8381831617835250505050610c51565b50505050565b60008151905060006a636f6e736f6c652e6c6f679050602083016000808483855afa5050505050565b6000604051905090565b600080fd5b600080fd5b600080fd5b600080fd5b6000601f19601f8301169050919050565b7f4e487b7100000000000000000000000000000000000000000000000000000000600052604160045260246000fd5b610ce182610c98565b810181811067ffffffffffffffff82111715610d0057610cff610ca9565b5b80604052505050565b6000610d13610c7a565b9050610d1f8282610cd8565b919050565b600067ffffffffffffffff821115610d3f57610d3e610ca9565b5b610d4882610c98565b9050602081019050919050565b82818337600083830152505050565b6000610d77610d7284610d24565b610d09565b905082815260208101848484011115610d9357610d92610c93565b5b610d9e848285610d55565b509392505050565b600082601f830112610dbb57610dba610c8e565b5b8135610dcb848260208601610d64565b91505092915050565b600060208284031215610dea57610de9610c84565b5b600082013567ffffffffffffffff811115610e0857610e07610c89565b5b610e1484828501610da6565b91505092915050565b6000819050919050565b610e3081610e1d565b82525050565b6000602082019050610e4b6000830184610e27565b92915050565b600073ffffffffffffffffffffffffffffffffffffffff82169050919050565b6000610e7c82610e51565b9050919050565b610e8c81610e71565b8114610e9757600080fd5b50565b600081359050610ea981610e83565b92915050565b600060208284031215610ec557610ec4610c84565b5b6000610ed384828501610e9a565b91505092915050565b600081519050919050565b600082825260208201905092915050565b6000819050602082019050919050565b610f1181610e71565b82525050565b600081519050919050565b600082825260208201905092915050565b60005b83811015610f51578082015181840152602081019050610f36565b60008484015250505050565b6000610f6882610f17565b610f728185610f22565b9350610f82818560208601610f33565b610f8b81610c98565b840191505092915050565b610f9f81610e1d565b82525050565b6000606083016000830151610fbd6000860182610f08565b5060208301518482036020860152610fd58282610f5d565b9150506040830151610fea6040860182610f96565b508091505092915050565b60006110018383610fa5565b905092915050565b6000602082019050919050565b600061102182610edc565b61102b8185610ee7565b93508360208202850161103d85610ef8565b8060005b85811015611079578484038952815161105a8582610ff5565b945061106583611009565b925060208a01995050600181019050611041565b50829750879550505050505092915050565b600060208201905081810360008301526110a58184611016565b905092915050565b7f4e487b7100000000000000000000000000000000000000000000000000000000600052601160045260246000fd5b60006110e782610e1d565b91506110f283610e1d565b925082820190508082111561110a576111096110ad565b5b92915050565b600082825260208201905092915050565b7f77616974203330207365636f6e64730000000000000000000000000000000000600082015250565b6000611157600f83611110565b915061116282611121565b602082019050919050565b600060208201905081810360008301526111868161114a565b9050919050565b7f4e487b7100000000000000000000000000000000000000000000000000000000600052602260045260246000fd5b600060028204905060018216806111d457607f821691505b6020821081036111e7576111e661118d565b5b50919050565b60008190508160005260206000209050919050565b60006020601f8301049050919050565b600082821b905092915050565b60006008830261124f7fffffffffffffffffffffffffffffffffffffffffffffffffffffffffffffffff82611212565b6112598683611212565b95508019841693508086168417925050509392505050565b6000819050919050565b600061129661129161128c84610e1d565b611271565b610e1d565b9050919050565b6000819050919050565b6112b08361127b565b6112c46112bc8261129d565b84845461121f565b825550505050565b600090565b6112d96112cc565b6112e48184846112a7565b505050565b5b81811015611308576112fd6000826112d1565b6001810190506112ea565b5050565b601f82111561134d5761131e816111ed565b61132784611202565b81016020851015611336578190505b61134a61134285611202565b8301826112e9565b50505b505050565b600082821c905092915050565b600061137060001984600802611352565b1980831691505092915050565b6000611389838361135f565b9150826002028217905092915050565b6113a282610f17565b67ffffffffffffffff8111156113bb576113ba610ca9565b5b6113c582546111bc565b6113d082828561130c565b600060209050601f83116001811461140357600084156113f1578287015190505b6113fb858261137d565b865550611463565b601f198416611411866111ed565b60005b8281101561143957848901518255600182019150602085019450602081019050611414565b868310156114565784890151611452601f89168261135f565b8355505b6001600288020188555050505b505050505050565b7f4e487b7100000000000000000000000000000000000000000000000000000000600052601260045260246000fd5b60006114a582610e1d565b91506114b083610e1d565b9250826114c0576114bf61146b565b5b828206905092915050565b7f547279696e6720746f207769746864726177206d6f7265206d6f6e657920746860008201527f616e2074686520636f6e7472616374206861732e000000000000000000000000602082015250565b6000611527603483611110565b9150611532826114cb565b604082019050919050565b600060208201905081810360008301526115568161151a565b9050919050565b600081905092915050565b50565b600061157860008361155d565b915061158382611568565b600082019050919050565b60006115998261156b565b9150819050919050565b7f4661696c656420746f207769746864726177206d6f6e65792066726f6d20636f60008201527f6e74726163742e00000000000000000000000000000000000000000000000000602082015250565b60006115ff602783611110565b915061160a826115a3565b604082019050919050565b6000602082019050818103600083015261162e816115f2565b9050919050565b600061164082610f17565b61164a8185611110565b935061165a818560208601610f33565b61166381610c98565b840191505092915050565b60006040820190506116836000830185610e27565b81810360208301526116958184611635565b90509392505050565b7f747279696e6720746f207769746864726177206d6f7265206d6f6e657920746860008201527f616e2074686520636f6e7472616374206861732e000000000000000000000000602082015250565b60006116fa603483611110565b91506117058261169e565b604082019050919050565b60006020820190508181036000830152611729816116ed565b9050919050565b7f6661696c656420746f207769746864726177206d6f6e65792066726f6d20636f60008201527f6e74726163742e00000000000000000000000000000000000000000000000000602082015250565b600061178c602783611110565b915061179782611730565b604082019050919050565b600060208201905081810360008301526117bb8161177f565b9050919050565b600060208201905081810360008301526117dc8184611635565b905092915050565b6117ed81610e71565b82525050565b6000606082019050818103600083015261180d8186611635565b905061181c60208301856117e4565b818103604083015261182e8184611635565b9050949350505050565b600060408201905081810360008301526118528185611635565b90506118616020830184610e27565b9392505050565b600060408201905081810360008301526118828185611635565b905061189160208301846117e4565b9392505050565b60006080820190506118ad60008301876117e4565b81810360208301526118bf8186611635565b90506118ce6040830185610e27565b81810360608301526118e08184611635565b90509594505050505056fea2646970667358221220b08454d78ec907983601aeef9fca0bb0953e66abc5fcea936a270526a28da8ca64736f6c63430008110033596f20796f2c204920616d206120636f6e747261637420616e64204920616d20736d617274",
  "linkReferences": {},
  "deployedLinkReferences": {}
}