{
  "_format": "hh-sol-artifact-1",
  "contractName": "WavePortal",
  "sourceName": "contracts/WavePortal.sol",
  "abi": [
    {
      "inputs": [],
      "stateMutability": "payable",
      "type": "constructor"
    },
    {
      "anonymous": false,
      "inputs": [
        {
          "indexed": true,
          "internalType": "address",
          "name": "from",
          "type": "address"
        },
        {
          "indexed": false,
          "internalType": "uint256",
          "name": "timestamp",
          "type": "uint256"
        },
        {
          "indexed": false,
          "internalType": "string",
          "name": "message",
          "type": "string"
        }
      ],
      "name": "NewWave",
      "type": "event"
    },
    {
      "inputs": [
        {
          "internalType": "address",
          "name": "_whoWave",
          "type": "address"
        }
      ],
      "name": "countWaves",
      "outputs": [],
      "stateMutability": "nonpayable",
      "type": "function"
    },
    {
      "inputs": [],
      "name": "getAllWaves",
      "outputs": [
        {
          "components": [
            {
              "internalType": "address",
              "name": "waver",
              "type": "address"
            },
            {
              "internalType": "string",
              "name": "message",
              "type": "string"
            },
            {
              "internalType": "uint256",
              "name": "timestamp",
              "type": "uint256"
            }
          ],
          "internalType": "struct WavePortal.Wave[]",
          "name": "",
          "type": "tuple[]"
        }
      ],
      "stateMutability": "view",
      "type": "function"
    },
    {
      "inputs": [],
      "name": "getTotalWaves",
      "outputs": [
        {
          "internalType": "uint256",
          "name": "",
          "type": "uint256"
        }
      ],
      "stateMutability": "view",
      "type": "function"
    },
    {
      "inputs": [
        {
          "internalType": "address",
          "name": "_waveCount",
          "type": "address"
        }
      ],
      "name": "viewCount",
      "outputs": [
        {
          "internalType": "uint256",
          "name": "",
          "type": "uint256"
        }
      ],
      "stateMutability": "view",
      "type": "function"
    },
    {
      "inputs": [
        {
          "internalType": "string",
          "name": "_message",
          "type": "string"
        }
      ],
      "name": "wave",
      "outputs": [],
      "stateMutability": "nonpayable",
      "type": "function"
    }
  ],
  "bytecode": "0x60806040526200003360405180606001604052806025815260200162001562602591396200003960201b620006691760201c565b620001c3565b620000d9816040516024016200005091906200019f565b6040516020818303038152906040527f41304fac000000000000000000000000000000000000000000000000000000007bffffffffffffffffffffffffffffffffffffffffffffffffffffffff19166020820180517bffffffffffffffffffffffffffffffffffffffffffffffffffffffff8381831617835250505050620000dc60201b60201c565b50565b60008151905060006a636f6e736f6c652e6c6f679050602083016000808483855afa5050505050565b600081519050919050565b600082825260208201905092915050565b60005b838110156200014157808201518184015260208101905062000124565b60008484015250505050565b6000601f19601f8301169050919050565b60006200016b8262000105565b62000177818562000110565b93506200018981856020860162000121565b62000194816200014d565b840191505092915050565b60006020820190508181036000830152620001bb81846200015e565b905092915050565b61138f80620001d36000396000f3fe608060405234801561001057600080fd5b50600436106100575760003560e01c8063449d46c01461005c5780639a2cdc0814610078578063b582215014610096578063bd43a908146100b2578063c0a8cae2146100d0575b600080fd5b61007660048036038101906100719190610a62565b610100565b005b61008061036d565b60405161008d9190610ac4565b60405180910390f35b6100b060048036038101906100ab9190610b3d565b6103b8565b005b6100ba61041a565b6040516100c79190610d19565b60405180910390f35b6100ea60048036038101906100e59190610b3d565b61056b565b6040516100f79190610ac4565b60405180910390f35b60016000808282546101129190610d6a565b925050819055506101596040518060400160405280601681526020017f257320776176656420772f206d657373616765202573000000000000000000008152503383610702565b600260405180606001604052803373ffffffffffffffffffffffffffffffffffffffff16815260200183815260200142815250908060018154018082558091505060019003906000526020600020906003020160009091909190915060008201518160000160006101000a81548173ffffffffffffffffffffffffffffffffffffffff021916908373ffffffffffffffffffffffffffffffffffffffff16021790555060208201518160010190816102119190610faa565b506040820151816002015550503373ffffffffffffffffffffffffffffffffffffffff167f5f7e16dc676677766a70e9c5628aa6c54ddb8b6e5188e2ae1e1f17f1ffbea71642836040516102669291906110c6565b60405180910390a26000655af3107a40009050478111156102bc576040517f08c379a00000000000000000000000000000000000000000000000000000000081526004016102b390611168565b60405180910390fd5b60003373ffffffffffffffffffffffffffffffffffffffff16826040516102e2906111b9565b60006040518083038185875af1925050503d806000811461031f576040519150601f19603f3d011682016040523d82523d6000602084013e610324565b606091505b5050905080610368576040517f08c379a000000000000000000000000000000000000000000000000000000000815260040161035f90611240565b60405180910390fd5b505050565b60006103b06040518060400160405280601781526020017f5765206861766520256420746f74616c207761766573210000000000000000008152506000546107a1565b600054905090565b60018060008282546103ca9190610d6a565b92505081905550600154600360008373ffffffffffffffffffffffffffffffffffffffff1673ffffffffffffffffffffffffffffffffffffffff1681526020019081526020016000208190555050565b60606002805480602002602001604051908101604052809291908181526020016000905b8282101561056257838290600052602060002090600302016040518060600160405290816000820160009054906101000a900473ffffffffffffffffffffffffffffffffffffffff1673ffffffffffffffffffffffffffffffffffffffff1673ffffffffffffffffffffffffffffffffffffffff1681526020016001820180546104c790610dcd565b80601f01602080910402602001604051908101604052809291908181526020018280546104f390610dcd565b80156105405780601f1061051557610100808354040283529160200191610540565b820191906000526020600020905b81548152906001019060200180831161052357829003601f168201915b505050505081526020016002820154815250508152602001906001019061043e565b50505050905090565b6000610622826040518060400160405280600981526020017f6861732077617665640000000000000000000000000000000000000000000000815250600360008673ffffffffffffffffffffffffffffffffffffffff1673ffffffffffffffffffffffffffffffffffffffff168152602001908152602001600020546040518060400160405280600581526020017f74696d657300000000000000000000000000000000000000000000000000000081525061083d565b600360008373ffffffffffffffffffffffffffffffffffffffff1673ffffffffffffffffffffffffffffffffffffffff168152602001908152602001600020549050919050565b6106ff8160405160240161067d9190611260565b6040516020818303038152906040527f41304fac000000000000000000000000000000000000000000000000000000007bffffffffffffffffffffffffffffffffffffffffffffffffffffffff19166020820180517bffffffffffffffffffffffffffffffffffffffffffffffffffffffff83818316178352505050506108df565b50565b61079c83838360405160240161071a93929190611291565b6040516020818303038152906040527fe0e9ad4f000000000000000000000000000000000000000000000000000000007bffffffffffffffffffffffffffffffffffffffffffffffffffffffff19166020820180517bffffffffffffffffffffffffffffffffffffffffffffffffffffffff83818316178352505050506108df565b505050565b61083982826040516024016107b79291906112d6565b6040516020818303038152906040527fb60e72cc000000000000000000000000000000000000000000000000000000007bffffffffffffffffffffffffffffffffffffffffffffffffffffffff19166020820180517bffffffffffffffffffffffffffffffffffffffffffffffffffffffff83818316178352505050506108df565b5050565b6108d9848484846040516024016108579493929190611306565b6040516020818303038152906040527f448830a8000000000000000000000000000000000000000000000000000000007bffffffffffffffffffffffffffffffffffffffffffffffffffffffff19166020820180517bffffffffffffffffffffffffffffffffffffffffffffffffffffffff83818316178352505050506108df565b50505050565b60008151905060006a636f6e736f6c652e6c6f679050602083016000808483855afa5050505050565b6000604051905090565b600080fd5b600080fd5b600080fd5b600080fd5b6000601f19601f8301169050919050565b7f4e487b7100000000000000000000000000000000000000000000000000000000600052604160045260246000fd5b61096f82610926565b810181811067ffffffffffffffff8211171561098e5761098d610937565b5b80604052505050565b60006109a1610908565b90506109ad8282610966565b919050565b600067ffffffffffffffff8211156109cd576109cc610937565b5b6109d682610926565b9050602081019050919050565b82818337600083830152505050565b6000610a05610a00846109b2565b610997565b905082815260208101848484011115610a2157610a20610921565b5b610a2c8482856109e3565b509392505050565b600082601f830112610a4957610a4861091c565b5b8135610a598482602086016109f2565b91505092915050565b600060208284031215610a7857610a77610912565b5b600082013567ffffffffffffffff811115610a9657610a95610917565b5b610aa284828501610a34565b91505092915050565b6000819050919050565b610abe81610aab565b82525050565b6000602082019050610ad96000830184610ab5565b92915050565b600073ffffffffffffffffffffffffffffffffffffffff82169050919050565b6000610b0a82610adf565b9050919050565b610b1a81610aff565b8114610b2557600080fd5b50565b600081359050610b3781610b11565b92915050565b600060208284031215610b5357610b52610912565b5b6000610b6184828501610b28565b91505092915050565b600081519050919050565b600082825260208201905092915050565b6000819050602082019050919050565b610b9f81610aff565b82525050565b600081519050919050565b600082825260208201905092915050565b60005b83811015610bdf578082015181840152602081019050610bc4565b60008484015250505050565b6000610bf682610ba5565b610c008185610bb0565b9350610c10818560208601610bc1565b610c1981610926565b840191505092915050565b610c2d81610aab565b82525050565b6000606083016000830151610c4b6000860182610b96565b5060208301518482036020860152610c638282610beb565b9150506040830151610c786040860182610c24565b508091505092915050565b6000610c8f8383610c33565b905092915050565b6000602082019050919050565b6000610caf82610b6a565b610cb98185610b75565b935083602082028501610ccb85610b86565b8060005b85811015610d075784840389528151610ce88582610c83565b9450610cf383610c97565b925060208a01995050600181019050610ccf565b50829750879550505050505092915050565b60006020820190508181036000830152610d338184610ca4565b905092915050565b7f4e487b7100000000000000000000000000000000000000000000000000000000600052601160045260246000fd5b6000610d7582610aab565b9150610d8083610aab565b9250828201905080821115610d9857610d97610d3b565b5b92915050565b7f4e487b7100000000000000000000000000000000000000000000000000000000600052602260045260246000fd5b60006002820490506001821680610de557607f821691505b602082108103610df857610df7610d9e565b5b50919050565b60008190508160005260206000209050919050565b60006020601f8301049050919050565b600082821b905092915050565b600060088302610e607fffffffffffffffffffffffffffffffffffffffffffffffffffffffffffffffff82610e23565b610e6a8683610e23565b95508019841693508086168417925050509392505050565b6000819050919050565b6000610ea7610ea2610e9d84610aab565b610e82565b610aab565b9050919050565b6000819050919050565b610ec183610e8c565b610ed5610ecd82610eae565b848454610e30565b825550505050565b600090565b610eea610edd565b610ef5818484610eb8565b505050565b5b81811015610f1957610f0e600082610ee2565b600181019050610efb565b5050565b601f821115610f5e57610f2f81610dfe565b610f3884610e13565b81016020851015610f47578190505b610f5b610f5385610e13565b830182610efa565b50505b505050565b600082821c905092915050565b6000610f8160001984600802610f63565b1980831691505092915050565b6000610f9a8383610f70565b9150826002028217905092915050565b610fb382610ba5565b67ffffffffffffffff811115610fcc57610fcb610937565b5b610fd68254610dcd565b610fe1828285610f1d565b600060209050601f8311600181146110145760008415611002578287015190505b61100c8582610f8e565b865550611074565b601f19841661102286610dfe565b60005b8281101561104a57848901518255600182019150602085019450602081019050611025565b868310156110675784890151611063601f891682610f70565b8355505b6001600288020188555050505b505050505050565b600082825260208201905092915050565b600061109882610ba5565b6110a2818561107c565b93506110b2818560208601610bc1565b6110bb81610926565b840191505092915050565b60006040820190506110db6000830185610ab5565b81810360208301526110ed818461108d565b90509392505050565b7f747279696e6720746f207769746864726177206d6f7265206d6f6e657920746860008201527f616e2074686520636f6e7472616374206861732e000000000000000000000000602082015250565b600061115260348361107c565b915061115d826110f6565b604082019050919050565b6000602082019050818103600083015261118181611145565b9050919050565b600081905092915050565b50565b60006111a3600083611188565b91506111ae82611193565b600082019050919050565b60006111c482611196565b9150819050919050565b7f6661696c656420746f207769746864726177206d6f6e65792066726f6d20636f60008201527f6e74726163742e00000000000000000000000000000000000000000000000000602082015250565b600061122a60278361107c565b9150611235826111ce565b604082019050919050565b600060208201905081810360008301526112598161121d565b9050919050565b6000602082019050818103600083015261127a818461108d565b905092915050565b61128b81610aff565b82525050565b600060608201905081810360008301526112ab818661108d565b90506112ba6020830185611282565b81810360408301526112cc818461108d565b9050949350505050565b600060408201905081810360008301526112f0818561108d565b90506112ff6020830184610ab5565b9392505050565b600060808201905061131b6000830187611282565b818103602083015261132d818661108d565b905061133c6040830185610ab5565b818103606083015261134e818461108d565b90509594505050505056fea2646970667358221220494e661547a516f857df66c2b0da30f6f5e22c41c96367d4e9f7d0e45202e42264736f6c63430008110033596f20796f2c204920616d206120636f6e747261637420616e64204920616d20736d617274",
  "linkReferences": {},
  "deployedLinkReferences": {}
}